{
  "_format": "hh-sol-artifact-1",
  "contractName": "ScoreRegistry",
  "sourceName": "contracts/ScoreRegistry.sol",
  "abi": [
    {
      "anonymous": false,
      "inputs": [
        {
          "indexed": true,
          "internalType": "address",
          "name": "wallet",
          "type": "address"
        },
        {
          "indexed": false,
          "internalType": "uint8",
          "name": "score",
          "type": "uint8"
        }
      ],
      "name": "ScoreSubmitted",
      "type": "event"
    },
    {
      "inputs": [
        {
          "internalType": "address",
          "name": "wallet",
          "type": "address"
        }
      ],
      "name": "getScore",
      "outputs": [
        {
          "internalType": "uint8",
          "name": "",
          "type": "uint8"
        }
      ],
      "stateMutability": "view",
      "type": "function"
    },
    {
      "inputs": [
        {
          "internalType": "bytes32",
          "name": "messageHash",
          "type": "bytes32"
        },
        {
          "internalType": "bytes",
          "name": "signature",
          "type": "bytes"
        }
      ],
      "name": "recoverSigner",
      "outputs": [
        {
          "internalType": "address",
          "name": "",
          "type": "address"
        }
      ],
      "stateMutability": "pure",
      "type": "function"
    },
    {
      "inputs": [
        {
          "internalType": "bytes",
          "name": "signature",
          "type": "bytes"
        }
      ],
      "name": "splitSignature",
      "outputs": [
        {
          "internalType": "uint8",
          "name": "v",
          "type": "uint8"
        },
        {
          "internalType": "bytes32",
          "name": "r",
          "type": "bytes32"
        },
        {
          "internalType": "bytes32",
          "name": "s",
          "type": "bytes32"
        }
      ],
      "stateMutability": "pure",
      "type": "function"
    },
    {
      "inputs": [
        {
          "internalType": "address",
          "name": "wallet",
          "type": "address"
        },
        {
          "internalType": "uint8",
          "name": "score",
          "type": "uint8"
        }
      ],
      "name": "submitScore",
      "outputs": [],
      "stateMutability": "nonpayable",
      "type": "function"
    }
  ],
  "bytecode": "0x608060405234801561001057600080fd5b5061079f806100206000396000f3fe608060405234801561001057600080fd5b506004361061004c5760003560e01c806397aba7f914610051578063a7bb580314610081578063afe712f0146100b3578063d47875d0146100cf575b600080fd5b61006b60048036038101906100669190610464565b6100ff565b6040516100789190610501565b60405180910390f35b61009b6004803603810190610096919061051c565b61016e565b6040516100aa93929190610590565b60405180910390f35b6100cd60048036038101906100c8919061061f565b6101d6565b005b6100e960048036038101906100e4919061065f565b61027f565b6040516100f6919061068c565b60405180910390f35b60008060008061010e8561016e565b9250925092506001868484846040516000815260200160405260405161013794939291906106a7565b6020604051602081039080840390855afa158015610159573d6000803e3d6000fd5b50505060206040510351935050505092915050565b600080600060418451146101b7576040517f08c379a00000000000000000000000000000000000000000000000000000000081526004016101ae90610749565b60405180910390fd5b6020840151915060408401519050606084015160001a92509193909250565b806000808473ffffffffffffffffffffffffffffffffffffffff1673ffffffffffffffffffffffffffffffffffffffff16815260200190815260200160002060006101000a81548160ff021916908360ff1602179055508173ffffffffffffffffffffffffffffffffffffffff167f89ecb5ef8170a2748bebd1c98c72c5852333a09e2f46d5362f30f7fc24b82fdc82604051610273919061068c565b60405180910390a25050565b60008060008373ffffffffffffffffffffffffffffffffffffffff1673ffffffffffffffffffffffffffffffffffffffff16815260200190815260200160002060009054906101000a900460ff169050919050565b6000604051905090565b600080fd5b600080fd5b6000819050919050565b6102fb816102e8565b811461030657600080fd5b50565b600081359050610318816102f2565b92915050565b600080fd5b600080fd5b6000601f19601f8301169050919050565b7f4e487b7100000000000000000000000000000000000000000000000000000000600052604160045260246000fd5b61037182610328565b810181811067ffffffffffffffff821117156103905761038f610339565b5b80604052505050565b60006103a36102d4565b90506103af8282610368565b919050565b600067ffffffffffffffff8211156103cf576103ce610339565b5b6103d882610328565b9050602081019050919050565b82818337600083830152505050565b6000610407610402846103b4565b610399565b90508281526020810184848401111561042357610422610323565b5b61042e8482856103e5565b509392505050565b600082601f83011261044b5761044a61031e565b5b813561045b8482602086016103f4565b91505092915050565b6000806040838503121561047b5761047a6102de565b5b600061048985828601610309565b925050602083013567ffffffffffffffff8111156104aa576104a96102e3565b5b6104b685828601610436565b9150509250929050565b600073ffffffffffffffffffffffffffffffffffffffff82169050919050565b60006104eb826104c0565b9050919050565b6104fb816104e0565b82525050565b600060208201905061051660008301846104f2565b92915050565b600060208284031215610532576105316102de565b5b600082013567ffffffffffffffff8111156105505761054f6102e3565b5b61055c84828501610436565b91505092915050565b600060ff82169050919050565b61057b81610565565b82525050565b61058a816102e8565b82525050565b60006060820190506105a56000830186610572565b6105b26020830185610581565b6105bf6040830184610581565b949350505050565b6105d0816104e0565b81146105db57600080fd5b50565b6000813590506105ed816105c7565b92915050565b6105fc81610565565b811461060757600080fd5b50565b600081359050610619816105f3565b92915050565b60008060408385031215610636576106356102de565b5b6000610644858286016105de565b92505060206106558582860161060a565b9150509250929050565b600060208284031215610675576106746102de565b5b6000610683848285016105de565b91505092915050565b60006020820190506106a16000830184610572565b92915050565b60006080820190506106bc6000830187610581565b6106c96020830186610572565b6106d66040830185610581565b6106e36060830184610581565b95945050505050565b600082825260208201905092915050565b7f496e76616c6964207369676e6174757265206c656e6774680000000000000000600082015250565b60006107336018836106ec565b915061073e826106fd565b602082019050919050565b6000602082019050818103600083015261076281610726565b905091905056fea26469706673582212202b07be8e8d96df97254936e202c868194cc0aa4b81143be2eddc97db6e61826764736f6c63430008140033",
  "linkReferences": {},
  "deployedLinkReferences": {}
}